:020000040800F2
:10000000E00E002401001008E124100899230008E4
:10001000D924100879030008112F100800000000EF
:100020000000000000000000000000005926000849
:10003000890010080000000011240008F9281008A9
:100040001B0010081B0010081B0010081B001008E4
:100050001B0010081B0010081B0010081B001008D4
:100060001B0010081B0010081B0010081B001008C4
:100070001B0010081B0010081B0010081B001008B4
:100080001B0010081B0010081B001008910300083B
:100090001B0010081B0010081B0010081B00100894
:1000A0001B0010081B0010081B0010081B00100884
:1000B0001B0010081B0010081B0010081B00100874
:1000C0001B0010081B0010081B0010081B00100864
:1000D0001B0010081B0010081B0010081B00100854
:1000E0001B0010081B001008000000001B00100877
:1000F0001B0010081B0010081B0010081B00100834
:100100001B0010081B0010081B0010081B00100823
:10011000792910081B001008012910081B0010087D
:100120001B0010081B0010081B0010081B00100803
:100130001B0010081B0010081B0010081B001008F3
:1001400000000000000000000000000000000000AF
:100150001B0010081B0010081B0010081B001008D3
:100160001B0010081B0010081B0010081B001008C3
:100170001B0010081B0010081B00100800000000E6
:100180001B0010081B0010081B0010081B001008A3
:100190001B0010081B0010081B0010081B00100893
:1001A0001B0010081B0010081B0010081B00100883
:1001B0001B0010081B0010081B0010081B00100873
:1001C0001B0010081B0010081B0010081B00100863
:1001D0001B0010081B0010081B0010081B00100853
:1001E0001B0010081B0010081B0010081B00100843
:1001F0001B0010081B0010081B0010081B00100833
:100200001B0010081B0010081B0010081B00100822
:100210001B0010081B0010081B0010081B00100812
:100220001B0010081B0010081B0010080000000035
:100230001B0010081B001008000000001B00100825
:100240001B0010081B0010081B0010081B001008E2
:100250001B0010081B0010081B0010081B001008D2
:100260001B0010081B0010081B0010081B001008C2
:100270001B0010081B0010081B00100800000000E5
:100280001B001008000000001B0010080000000008
:10029000000000001B001008DFF80CD000F058F838
:1002A00000480047F9320008E00E00242DE9F05F15
:1002B0000546002092469B468846064681464024D5
:1002C0001BE02846414647462246FFF0BDFE534606
:1002D0005A46C01A914110D311461846224600F0E2
:1002E00028F82D1A67EB01084F462246012000210D
:1002F00000F01FF817EB00094E41201EA4F1010485
:10030000DFDC484631462A464346BDE8F09F40EAD6
:1003100001039B0703D009E008C9121F08C0042A83
:10032000FAD203E011F8013B00F8013B521EF9D26A
:100330007047202A04DB203A00FA02F100207047BF
:100340009140C2F1200320FA03F319439040704713
:10035000064C074D06E0E06840F0010394E8070012
:1003600098471034AC42F6D3FFF79AFFD036000816
:10037000F036000800000000FEE70000000000006A
:10038000EFF3108072B600BFFEE70000000000002F
:1003900080B540F60010C2F2004000F0FDFA80BDCA
:1003A000B0B58AB040F600104AF20001C2F2004037
:1003B0000024CDE90844CDE90644CDE90444CDE963
:1003C0000244C4F2000101604FF440710125C0E90C
:1003D00002140582052184740E2245618161C0E901
:1003E0000721C0E90951C0E90B21C0E90D44C563EB
:1003F00004210164122141640A220465C0E9164403
:10040000C0E91824816600F1FFF808B1FFF7B8FFD2
:100410004FF0804002A9CDE902040220CDE9040595
:1004200040F60010C2F20040CDE9064400F0D0F9D9
:1004300038B143F2616111A0C0F60001A62203F0B9
:1004400041F840F600100221C2F2004002220123CE
:1004500001250095FFF0CCFF08B1FFF791FF40F6B2
:1004600000140121C2F2004400222046FFF070FF78
:10047000204600F129FB0AB0B0BD00BF44454255FB
:10048000473A2025733A25643A20C2CBB2A8C6F772
:10049000B3F5CABCCAA7B0DC0A0000000000000027
:1004A0002DE9F04F95B00C4600291546049072D006
:1004B000B5F1005F06D343F26160CB21C0F60000C6
:1004C00002F15EFD40F643016808C8F22141A0FB3D
:1004D00001010809012151FA80FB5FFA8BF10391B8
:1004E000594503D0002015B0BDE8F08FC0EB401196
:1004F00005AE5FFA80FA4FF00009A5EB410140F22A
:100500004005C2F200454FF00008B21C0292019172
:1005100005E000BF03983E34B842B846E2D040211F
:100520003046FFF086FD08F10107C2458DF81470D2
:100530008DF815B004D102982146019A03E000BF5E
:100540003E2202982146FFF7E2FE049828604FF011
:1005500080402946C5E901094FF470203246C5E9BB
:1005600003094FF4801068614FF40010C5F8209023
:10057000C5E9060940F60010C2F2004000F06CF830
:100580000028C7D043F26161ED2209A0C0F6000146
:1005900002F098FFBEE743F26160CA21C0F6000096
:1005A00002F1EEFCB5F1005FBFF485AF8AE700BF52
:1005B00044454255473A2025733A25643A200D0AAE
:1005C000D7B0D4D8CAA7B0DC0D0A000000000000E4
:1005D000F0B5D1F804C0D1F810E0BCF1000FD1F8AB
:1005E00008C006D00C684EEA0C05254345F0804C47
:1005F00004E00D684CEA0E0444EA854C856ED0F8A0
:100600008470D1E907466B438D6944EA0660D1F8EE
:1006100014E00543CC6807EB830045EA0E0647F873
:1006200023C046EA04034360CB68B3F5803F38BF7C
:10063000F0BD43F2485C083001320023C0F6100CD4
:10064000D71857F8017CC750CF8904331CF80770BE
:10065000BB42F5D3F0BD0000F0B581B00D4649684E
:1006600041F080411646B1F1804F044607D043F275
:1006700058504FF4BE61C0F6100002F181FC68686A
:100680000028286807D0B0F1005F0FD343F258501C
:1006900040F2F75106E0B0F5006F07D343F258502F
:1006A00040F2F351C0F6100002F16AFCA86840F075
:1006B0000050B0F1005F07D043F2585040F2F951BA
:1006C000C0F6100002F15CFCE8684FEA30401028E8
:1006D00007D343F2585040F2FA51C0F6100002F12D
:1006E0004FFC286940F00040B0F1004F07D043F2C2
:1006F000585040F2FB51C0F6100002F141FC68690D
:1007000040F48010B0F5801F07D043F2585040F2FB
:10071000FC51C0F6100002F133FCA86940F400104F
:10072000B0F5001F07D043F2585040F2FD51C0F61B
:10073000100002F125FCE86940F40000B0F5000F5C
:1007400007D043F2585040F2FE51C0F6100002F1BB
:1007500017FC286AB0F5807F07D343F2585040F267
:10076000FF51C0F6100002F10BFC94F8940002282F
:100770001BD12068D0F8C01011F07C5F1AD0D0F8DF
:10078000C410890216D4D0F8C40029463246C0F3FA
:10079000044720463B46FFF71BFF21680120B84075
:1007A000C1F8D000002001B0F0BDD4F8980040F0AE
:1007B000080003E0D4F8980040F02000C4F8980046
:1007C000012001B0F0BD00007047000000000000F3
:1007D000B0B5044690F894000D46012804D094F872
:1007E0009400022840F0AF80286840F08040B0F1CB
:1007F000804F07D043F258504FF44371C0F61000B9
:1008000002F1BEFBE868082807D343F2585040F2D3
:100810000D31C0F6100002F1B3FBE868072815D1CE
:10082000A869402807D343F258504FF44471C0F6EA
:10083000100002F1A5FBE869022807D343F25850E3
:1008400040F21131C0F6100002F19AFB286800282E
:10085000686839D0E16B0139884207D943F25850B2
:100860004FF44E71C0F6100002F18AFB2869B0F116
:10087000005F07D343F2585040F23931C0F6100000
:1008800002F17EFBE868072816D06869B0F1005FC6
:1008900007D343F258504FF44F71C0F6100002F1E5
:1008A0006FFBA868042807D343F2585040F23D314B
:1008B000C0F6100002F164FBD5E90301072841EA04
:1008C000407048D1A9694AE0A16B0139884207D933
:1008D00043F2585040F21731C0F6100002F150FBBD
:1008E0002869B0F5006F07D343F258504FF44671B2
:1008F000C0F6100002F144FBE868072816D06869CA
:10090000B0F5006F07D343F2585040F21B31C0F6E8
:10091000100002F135FBA868032807D343F25850B2
:100920004FF44771C0F6100002F12AFBE86807286F
:100930001ED12869E9690004AA6940EA0120104330
:1009400040F060501DE0D4F8980040F00200C4F878
:1009500098000120B0BDA9686A6942EA8171226FDE
:100960006B6802EBC30542F8330000206960B0BD3C
:10097000A9682A69890741EAC060696940EA0240BA
:1009800008436968E26E42F821000020B0BD000013
:1009900070470000000000002DE9F04F85B00446CC
:1009A0004AF610004AF61402C4F20000C4F2000233
:1009B00001681268206802EA010A056DD0F854B097
:1009C000D0F85090D0F85480036D0293436D01939A
:1009D000036D0493436D0393036DDB0544BF416DC9
:1009E0005FEAC15100F12381206805EA0B064AF64F
:1009F000100B4FEA8A77016DC4F2000B490544BF22
:100A0000416D5FEA415100F1298109EA08054AF682
:100A1000140806F47046C4F200088FB12068416DD6
:100A200041650AF00301D8F800208A43C8F8002085
:100A300000220265CBF8001020463946FFF7C4FEBD
:100A4000DDE9011000EA010705F00F057EB120681D
:100A5000416DB1434165D8F80010C8F80010066533
:100A60000020CBF800002046314600F159F807F08D
:100A7000F0067DB12068416DA9434165D8F80010AA
:100A8000C8F8001005650020CBF800002046294674
:100A900000F0E6F97EB12068416DB1434165D8F8B8
:100AA0000010C8F8001006650020CBF800002046B2
:100AB000314600F04DFA2068016D090544BF416DD3
:100AC0005FEA015100F1E8802068016D890544BFAB
:100AD000416D5FEA815100F1F1802068016D0903E9
:100AE00044BF416D5FEA013100F104812068016D6E
:100AF000C90344BF416D5FEAC13100F10D81206837
:100B0000016D4903DDE9032101EA020544BF416D9E
:100B10005FEA413100F112812068016D890305F01F
:100B20007F5144BF426D5FEA823200F1198179B191
:100B3000426D8A434265D8F80020C8F8002001655C
:100B40000022CBF80020D4F898201143C4F8981064
:100B5000ABF50161884208D0D4F8980010B1204666
:100B6000FFF716FF05B0BDE8F08F60688168890760
:100B7000F2D0016A426A036A476A114003EA070237
:100B800011F00F0102F03005066A476AD0F820A084
:100B9000D0F824B0D0F82080D0F8249006D0426A53
:100BA0008A4342620162204600F0D6F907EA06074E
:100BB00045B16068416AA943416205622046294601
:100BC000FFF0A2FF60680AEA0B0607F4C075016A2D
:100BD000490644BF416A5FEA416100F1D98008EAF1
:100BE000090706F4FC4645B16068416AA9434162C1
:100BF000056220462946FFF083FF07F4F0204EB13E
:100C000061684A6AB2434A620E62D4F8981031436E
:100C1000C4F8981000289FD061684A6A82434A62EB
:100C20000862D4F898100843C4F8980094E74AF68C
:100C30001402416DC4F2000221F480714165116813
:100C400011604FF4807101654AF610010020C4F272
:100C5000000108602046FFF0D3FCC5E64AF6140206
:100C6000416DC4F2000221F4806141651168116098
:100C7000D0F8DC10D0F8E4201140D0F8E4208A430A
:100C8000C0F8E4204FF4806202650020CBF8000039
:100C90002046FFF041FFB8E6416D21F40061416557
:100CA000D8F80010C8F800104FF40061016500206A
:100CB000CBF800002046FFF037FF05E7416D21F437
:100CC00000714165D8F80010C8F80010D0F8D810AD
:100CD000D0F8E0201140D0F8E0208A43C0F8E020AE
:100CE0004FF4007202650020CBF80000204600F0AF
:100CF0003FF9F2E6416D21F400214165D8F800107A
:100D0000C8F800104FF4002101650020CBF8000066
:100D10002046FFF0D5FEE9E6416D21F480314165C2
:100D2000D8F80010C8F800104FF480310165002099
:100D3000CBF80000204600F017F9E0E6416D21F401
:100D400080214165D8F80010C8F800104FF48021C8
:100D500001650020CBF800002046FFF0D9FEDBE65D
:100D6000426D22F400324265D8F80020C8F8002015
:100D70004FF4003202650022CBF80020D4F898200E
:100D800042F08002C4F8982000297FF4D1AEDFE65B
:100D9000416A402321F040014162C16BC26B090CE2
:100DA00002F03F020362204600F0DAF817E7000085
:100DB000F0B5B5B004464FF4004001904FF08050BC
:100DC0001C9001A800253095CDE93355CDE931556A
:100DD000FFF0D2FF4AF200012068C4F2000188420D
:100DE00001D035B0F0BD44F2E04041F60044C5F614
:100DF00002000226C5F602040927C16841F4807189
:100E0000C160C16801F4807100910099016841F0EE
:100E100080010160006800F08000009000984FF4AD
:100E20000050CDE9316530AD3090204629463497E9
:100E300000F0A2F84FF480402946CDE93006204664
:100E4000CDE9336700F098F813200021012200F06B
:100E50001BFA132000F008FA35B0F0BD00000000C6
:100E60002DE9F04391B0C9076CD04AF20001044665
:100E70000068C4F20001884264D101AE40213046CE
:100E8000FFF0D7F840F218084021C2F2004820468F
:100E900042463346FFF0F8FA9DF8040040F2BC7574
:100EA000C2F200459DF80570B11C3E22C0EB401017
:100EB00005EB40003E38FFF72AFA40F2B879C2F25B
:100EC000004999F80000013089F80000C1B2B94228
:100ED00033D168780022A97841EA00060121204632
:100EE000FFF036FA46B140F2BC71D8F80000C2F209
:100EF000004102F1D1F816E001F10AFD40F6BC0014
:100F000040F6BD02C2F20040C2F20042B5F8013024
:100F10000178A2F8013002EB4106B5F80320013157
:100F20000170A6F8032040F2BC70B901C2F2004083
:100F3000FFF07FF8002089F8000001210022204600
:100F4000FFF006FA11B0BDE8F083000000000000D9
:100F50007047000000000000704700000000000023
:100F60007047000000000000704700000000000013
:100F700070470000000000002DE9F04F83B00446E8
:100F800000F1264000F1FF700D464FEAB0200190BD
:100F90000B2806D343F29750C621C0F6100001F18A
:100FA000EFFF288830B943F29750C721C0F61000F0
:100FB00001F1E6FF4FF6FF716868C1F21011884237
:100FC0000ADC12282DD8012101FA00F00F21C0F20D
:100FD000060108422CD124E04FF6FF71C1F2211125
:100FE00088420FDC0021C1F21111884220D000217B
:100FF000C1F2121188421BD00021C1F22111884296
:1010000016D00EE00021C1F22211884210D000213A
:10101000C1F2311188420BD00021C1F23211884255
:1010200006D043F29750C821C0F6100001F1A8FF86
:10103000A868032806D343F29750C921C0F61000D0
:1010400001F19EFF42F200400A21C5F6020000268F
:1010500084424FF0010C08BF09214FF000094FF006
:10106000000A00910AE000BF0AF1010A09F104092F
:10107000BAF1100F06F1020600F0B1800CFA0AF87E
:10108000286810EA080BEFD0686840F010001228BA
:101090001BD12869102808D343F29750DA21C0F6F3
:1010A000100001F16DFF4FF0010C6FF0030009F02B
:1010B0001C0200EA5A000F2320449340016A2F6962
:1010C000994307FA02F2114301620320216800FAF2
:1010D00006F26868D743914300F00302122802FA2F
:1010E00006F241EA0201216020D80CFA00F010F06B
:1010F000061F1BD0E868042808D343F29750EE215E
:10110000C0F6100001F13CFF4FF0010CA068E96847
:1011100038406A68B1400843A060C2F300116068BB
:1011200020EA080001FA0AF108436060E068A96853
:101130003840B1400843E060E879C00694D544F2F5
:10114000F44140F2084EC5F60201C5F6000E0F2725
:10115000086840F002000860086809F00C0100F01F
:101160000200029002982AF00300019B009A092BCA
:1011700007FA01F738BF1A4650F80E30BB43042770
:1011800002FA01F1C5F60007194340F80E10F86F96
:10119000696840EA0B02CB0358BF20EA0B028B03BD
:1011A0004FF0B04EFA67D7F8800040EA0B0258BF04
:1011B00020EA0B02CB02C7F88020DEF8000040EAEC
:1011C0000B0258BF20EA0B028902CEF800203868D3
:1011D00040EA0B0258BF20EA0B023A6044E703B032
:1011E000BDE8F08F00000000016800204AF6AA2246
:1011F0000A6070470000000080B5032000F068F826
:10120000002000F009F800281CBF012080BDFFF07D
:101210001FFD002080BD0000B0B540F20C0140F27F
:101220000402C2F20041C2F200424FF47A73044653
:1012300009781268B3FBF1F1B2FBF1F1084600F056
:1012400083FE0F2C4FF001050CD858B94FF0FF303A
:1012500000222146002500F017F840F21000C2F2EB
:10126000004004602846B0BD10B50446B0F1FF3F11
:1012700006DC43F25450D021C0F6000001F180FE9C
:10128000204601F149FE10BD70B51546102A0E46E4
:10129000044606D343F25450BC21C0F6000001F1CD
:1012A0006FFE102E06D343F25450BD21C0F600004D
:1012B00001F166FE02F00CF831462A4601F090F882
:1012C0000146204601F138FE70BD0000000000001C
:1012D00010B504460338052806D343F25450A42120
:1012E000C0F6000001F14CFE204601F139FE10BDB0
:1012F00080B500F089FA44F218414FF48072C5F6C7
:101300000201096892FAA2F2B2FA82F201F4706163
:10131000D14043F21F52C0F61002515CC84040F267
:101320000401C2F20041086080BD0000000000001E
:1013300010B544F23841C5F6020151F8102C51F8AD
:1013400010CC02F0030351F80CEC022B4A680ED0CB
:1013500093B951F8383C9B0649F20003C0F2D033F0
:101360000ED551F8384CC4F3C104E34008E047F609
:101370004003C0F27D1303E040F60013C0F23D03CA
:10138000C2F3CC020EF0100462439FED242A00EE5B
:10139000102A0A686FF35F2201EE102ACCF305329F
:1013A000B8EE400AB3FBF2F2B8EE411A00EE021AB0
:1013B00002EE102A0A68B7EE000AC2F34622B8EE1F
:1013C000422A013231EE000A01EE102A20EE020A12
:1013D000B8EE411A80EE011ABCEEC11A80ED001A77
:1013E0000A68C2F30642013201EE102AB8EE411A31
:1013F00080EE011ABCEEC11A80ED011A0968C1F332
:101400000661013101EE101AB8EE411A80EE010AB0
:10141000BCEEC00A80ED020A10BD00BF000000391A
:101420002DE9F0470446006801380D463F2807D3F0
:1014300043F2D55040F2E521C0F6100001F1A0FDC5
:10144000082D07D343F2D55040F2E621C0F6100034
:1014500001F196FD42F20009C5F20029D9F8000019
:1014600000F00700A8420DD2D9F8000020F00700D4
:101470002843C9F80000D9F8000000F00700A8428E
:1014800040F0D480207844F21848C5F6020880075E
:101490000DD5E068A0F10801082980F01481D8F882
:1014A0000000E16820F00F000843C8F80000207831
:1014B000C00740F07F80D9F8000000F00700A84284
:1014C0000DD9D9F8000020F007002843C9F8000022
:1014D000D9F8000000F00700A84240F0A78020786B
:1014E00040070FD520696FF0030101EB301104298B
:1014F00080F00381D8F80000216920F070000843D3
:10150000C8F80000207800070FD560696FF003016C
:1015100001EB3011042980F0FE80D8F804006169E5
:1015200020F070000843C8F804002078C0060FD5EA
:10153000A0696FF0030101EB3021042980F0F980EC
:10154000D8F80400A16920F4E0600843C8F804005A
:10155000207880060FD5E0696FF0030101EB3011B0
:10156000042980F0F480D8F80800E16920F07000C8
:101570000843C8F8080000F047F9D8F800104FF405
:10158000807201F4706192FAA2F2B2FA82F200273C
:10159000D14043F21F52C0F61002515C40F20402E7
:1015A000C2F20042C84010600020FFF735FE384606
:1015B000BDE8F087A0686FF0070101EB3021082932
:1015C00080F08D806068042807D343F2D55040F244
:1015D0000531C0F6100001F1D3FCD8F8000020F46A
:1015E0007061D4E90102012841EA0201C8F8001043
:1015F0000AD003280FD0022814D158F8181C8903E8
:1016000017D40120BDE8F08758F8181CC90510D47C
:101610000120BDE8F08758F8181C890109D4012081
:10162000BDE8F08758F8181C490702D40120BDE82E
:10163000F08758F8081C21F00701084348F8080C07
:10164000FFF096FA61680646032941F2883A4FF0A6
:10165000030723D002292FD001290DD158F8080CF7
:1016600000F0380008283FF426AFFFF081FA801B15
:101670005045F3D99BE700BF58F8080C10F0380F1D
:101680003FF419AFFFF074FA801B5045F4D98EE790
:10169000FFF06EFA801B50453FF689AF58F8080CF2
:1016A00000F038001828F3D105E700BFFFF060FA1A
:1016B000801B50453FF67BAF58F8080C00F038000F
:1016C0001028F3D1F7E600283FF4E9AE43F2D550F5
:1016D00040F2FD21C0F6100001F152FCDFE64FEAB6
:1016E000302000283FF46EAF43F2D5504FF44171E3
:1016F000C0F6100001F144FC64E74FEA3010002806
:101700003FF4F8AE43F2D55040F26B31C0F6100012
:1017100001F136FCEEE64FEA301000283FF4FDAE52
:1017200043F2D55040F27231C0F6100001F128FCAE
:10173000F3E64FEA302000283FF402AF43F2D550E1
:1017400040F27931C0F6100001F11AFCF8E64FEAD8
:10175000301000283FF407AF43F2D55040F28131FA
:10176000C0F6100001F10CFCFDE6000000000000D6
:1017700080B5FFF7BDFD44F218410122C5F6020114
:10178000096892FAA2F2B2FA82F201F00F01D14096
:1017900043F21F52C0F61002515CC84040F20801EB
:1017A000C2F20041086080BD80B5FFF7E1FF44F25E
:1017B0001C411022C5F60201096892FAA2F2B2FA9F
:1017C00082F201F07001D14043F21F52C0F61002C4
:1017D000515CC84080BD000080B5FFF7C9FF44F2EE
:1017E0001C414FF48072C5F60201096892FAA2F218
:1017F000B2FA82F201F4E061D14043F21F52C0F626
:101800001002515CC84080BD80B544F20041C5F66D
:1018100002010869C0F3C20240F60010032AC0F2B8
:101820003D0010D0022A30D0002A5CD10868800622
:1018300049F20000C0F2D03058BF80BD0968C1F342
:10184000C101C84080BDD1F828E0D1F828C0CB6ADA
:101850004A6B03F00103C2F3CC025A430EF00303B8
:10186000022B00EE102ACCF30512B8EE400A11D07C
:10187000A3B90868800649F20000C0F2D0300DD547
:101880000B68C3F3C103D84008E047F64000C0F23C
:101890007D1080BD47F64000C0F27D100B6B9FEDC0
:1018A000122A6FF35F2301EE103AB0FBF2F0B8EEAC
:1018B000411A00EE021A02EE100A086BB7EE000A97
:1018C000C0F34620B8EE422A013031EE000A01EEA4
:1018D000100A20EE020AB8EE411A80EE010ABCEEB0
:1018E000C00A10EE100A80BD0000003900000000A0
:1018F000F0B581B00446006850B110F03F0007D148
:1019000043F2D55040F21511C0F6100001F138FB3A
:10191000207844F20046C5F60206C00755D060683C
:1019200068B1B0F5803F18BFB0F5A02F07D043F2E3
:10193000D5504FF48D71C0F6100001F121FB3069D4
:1019400000F03800102809D0306900F0380018285D
:101950000AD1B06A00F00300022805D13068800384
:1019600033D5606888BB07E165682DB1B5F5A02F58
:101970000AD0B5F5803F0BD0306820F4803030605D
:10198000306820F4802006E0306840F48020306029
:10199000306840F480303060FFF0EAF8002D0546F2
:1019A00010D000BF306880030FD4FFF0E1F8401B77
:1019B0006428F7D993E100BFFFF0DAF8401B6428F0
:1019C00000F28D8130688003F6D42078800740F1E2
:1019D0008080E068192865D8012101FA00F040F202
:1019E0000321C0F2022108425CD02069B0F5805F7B
:1019F00007D343F2D5504FF4A671C0F6100001F1A1
:101A0000BFFA306910F0380F1BD0306900F0380091
:101A1000182804BFB06A5FEA807012D0E0683168AD
:101A200048B321F0190108433060FFF0A1F80546E2
:101A3000306840073FD4FFF09BF8401B0228F7D9DD
:101A40004DE13068400703D5E068002800F094803D
:101A50003068E16820F0190008433060FFF088F832
:101A6000054600BF3068400715D4FFF081F8401BE1
:101A70000228F7D933E121F001003060FFF078F857
:101A8000054600BF3068400723D5FFF071F8401BC2
:101A90000228F7D923E1706822694FF47C3191FA6A
:101AA000A1F10EE043F2D55040F24B11C0F6100008
:101AB00001F166FA99E770684FF47C31226991FA76
:101AC000A1F1B1FA81F120F47C3002FA01F108436E
:101AD00070602078C00631D5E06940F08000802831
:101AE00007D043F2D5504FF4CD71C0F6100001F18C
:101AF00047FA206AB0F5805F07D343F2D55040F231
:101B00009B11C0F6100001F13BFA306900F038007B
:101B1000082870D13068C00502D5E06980282BD133
:101B20007068226A4FF0F84191FAA1F1B1FA81F19F
:101B300020F0F84002FA01F10843706020780007B5
:101B40001DD42078800638D42078400774D4606A89
:101B5000032807D343F2D55040F26121C0F61000AC
:101B600001F10EFA606A002800F0CE81316901F0BF
:101B70003801182940F0B680012001B0F0BD60693D
:101B8000022807D343F2D5504FF4ED71C0F6100090
:101B900001F1F6F960690028706F71D040F0010022
:101BA0007067FEF0E5FF0546706F8007C9D4FEF050
:101BB000DFFF401B0228F7D991E0A069022807D374
:101BC00043F2D55040F20521C0F6100001F1D8F9DA
:101BD000A0690028306873D040F480503060FEF077
:101BE000C7FF054630688004AED4FEF0C1FF401B3D
:101BF0000228F7D973E0306900F03800182805D1C1
:101C0000B06A00F0030001283FF484AFE0690028C7
:101C1000306800F0C48040F080003060FEF0A8FF23
:101C2000054600BF3068C00500F1CC80FEF0A0FF83
:101C3000401B0228F6D952E0A068052805D80121EA
:101C400001FA00F010F0230F07D143F2D55040F213
:101C50002F21C0F6100001F193F9D6F8000440F4EA
:101C60008070C6F80004FEF083FF0546D6F8000435
:101C7000C00515D4FEF07CFF401B6428F6D92EE089
:101C800020F001007067FEF073FF0546706F80075B
:101C90007FF557AFFEF06CFF401B0228F6D91EE01F
:101CA000A5682DB1052D00F0A780012D00F0A880BA
:101CB000306F20F001003067306F20F00400A2E0A8
:101CC00020F480503060FEF053FF054630688004F9
:101CD0007FF53AAFFEF04CFF401B0228F6D90320F7
:101CE00001B0F0BD022874D1A06A042807D343F2E2
:101CF000D55040F26A21C0F6100001F141F9E06AC6
:101D000001383F2807D343F2D55040F26B21C0F68B
:101D1000100001F135F9206B0438B0F5FE7F07D9CA
:101D200043F2D5504FF41B71C0F6100001F128F9B1
:101D3000606B0138802807D343F2D55040F26D2103
:101D4000C0F6100001F11CF9A06B0138802807D300
:101D500043F2D55040F26E21C0F6100001F110F9A7
:101D6000E06B0138802807D343F2D55040F26F2151
:101D7000C0F6100001F104F9306820F08070306086
:101D8000FEF0F6FE054600BF306880015BD5FEF030
:101D9000EFFE401B02284FF00300F5D9B2E020F01F
:101DA00080003060FEF0E4FE054600BF3068C005EC
:101DB0007FF5C4AEFEF0DCFE401B02284FF00300AE
:101DC000F4D99FE070684FF0F841226A91FAA1F1CE
:101DD000ACE6306820F080703060FEF0C9FE04464A
:101DE0003068800140F19080FEF0C2FE001B0328A5
:101DF0004FF00300F4D385E0306F40F0040030670B
:101E0000306F40F001003067FEF0B2FE002D054655
:101E100041F2883713D000BF306F80073FF597AE8F
:101E2000FEF0A6FE401BB8424FF00300F4D969E073
:101E3000FEF09EFE401BB8424FF0030062D8306FA8
:101E40008007F5D483E604F12807B06A40F2F33145
:101E500088438ECF0843591E40EA02104FF47E4259
:101E60006FF35F21B06202EB47204FF4FE0280B2B5
:101E7000E36B0844A16B02EB01414FF0FE4201F419
:101E8000FE0102EB0362084402F0FE4108443063A5
:101E9000706B4FF6F871A26C91FAA1F3B3FA83F369
:101EA000884302FA03F108437063F06A20F00C00E3
:101EB000D4E910120843F062F06A20F002001043E7
:101EC000F062F06A40F48030F062F06A40F4003072
:101ED000F062F06A40F48020F062F06A40F00100A5
:101EE000F062306840F080703060FEF041FE0446E1
:101EF0003068800108D4FEF03BFE001B02284FF042
:101F00000300F5D901B0F0BD002001B0F0BD000024
:101F100010B56FF004010446084207D043F2545054
:101F20004FF4D971C0F6000001F12AF84EF210000A
:101F3000042CCEF20000016821F0040108BF043136
:101F4000016010BD0000000080B500F1BDFC80BD47
:101F5000704700000000000010B5044600680169E9
:101F6000890744BFC1685FEA817140D42068016974
:101F7000490744BFC1685FEA417144D420680169E0
:101F8000090744BFC1685FEA017149D4206801694B
:101F9000C90644BFC1685FEAC1614DD420680169C8
:101FA000C9071CBFC1685FEAC17152D120680169CD
:101FB000090644BFC1685FEA016151D42068016924
:101FC000C90544BFC1685FEA016150D42068016956
:101FD000490644BFC1685FEA41614FD42068016986
:101FE000890644BFC1685FEA81614ED410BD6FF0BD
:101FF0000201016101212177806980074CD02046D0
:1020000000F18AF84EE06FF00401016102212177AE
:10201000806910F4407F48D0204600F17DF84AE006
:102020006FF00801016104212177C069800745D064
:10203000204600F171F847E06FF0100101610821BE
:102040002177C06910F4407F41D0204600F164F848
:1020500043E06FF001010161204600F045F8A5E77B
:102060006FF0800101612046FFF772FFA6E76FF075
:10207000800101612046FFF76BFFA7E76FF0400189
:102080000161204600F058F8A8E76FF020010161D7
:102090002046FFF069FE10BD204600F021F82046E2
:1020A00000F13EF80020207760E7204600F018F8A5
:1020B000204600F135F8002020775FE7204600F049
:1020C0000FF8204600F12CF8002020775EE720462C
:1020D00000F006F8204600F123F8002020775DE7A5
:1020E000704700000000000040F27401C2F200419D
:1020F000884218BF704770B500F002FB40F6BC057F
:1021000040F6BD04C2F20045C2F200445922002646
:10211000287804EB4001CA70032101EB40002070D5
:102120000020214600F1B8FF40212046FDF081FF4C
:102130002E70BDE87040704770470000000000003E
:102140007047000000000000B0B501680446CA698D
:10215000D1F800E002F02F008D68202809D10EF0A0
:10216000200005F08053C01803D0204600F0D0FBBB
:10217000B0BD12F00F0056D001200EF49073C1F2E2
:1021800000002840C0184ED0D00718BF1EF4807041
:1021900005D001200862E06F40F00100E067900781
:1021A00005F0010C08D5BCF1000F05D00220086233
:1021B000E06F40F00400E067500708D5BCF1000F65
:1021C00005D004200862E06F40F00200E0671007CD
:1021D0000DD50EF0200005F08053184410EB0C00D4
:1021E00005D008200862E06F40F00800E067E06F6B
:1021F000002865D012F0200008D00EF0200005F075
:102200008051401802D0204600F082FBE06F0007AA
:102210002ED42068806840062AD42046FFF084FF30
:102220000020E067B0BDD0020ED515F480000BD0C1
:102230004FF480100862202084F8790084F87A0036
:102240002046FFF77DFFB0BD100609D50EF08000D7
:1022500005F40003C01803D0204600F1A1FDB0BD75
:1022600002EA0E00400622D5204600F045FBB0BD34
:10227000204600F031FB20688168490613D581684B
:1022800021F040018160606F68B142F6C101C0F683
:1022900000010165FDF0ECFF002808BFB0BD606FD4
:1022A000016D8847B0BD2046FFF03EFFB0BD100273
:1022B00006D51EF080401EBF086820F080400860F0
:1022C000B0BD0000000000002DE9F04381B00446DD
:1022D00090F8790020280BD10E464FF0010741B14C
:1022E000154632B194F87800012806D1022700E0A3
:1022F0000227384601B0BDE8F0839946012084F8F2
:1023000078000020E067212084F87900FEF030FC9E
:10231000A4F860508046A4F86250B4F8621099B9ED
:102320004021002220464346CDF80090002700F1CE
:102330006FFD38B30327DCE7206816F8011B018521
:10234000B4F862000028EBD0B4F8620080210022CB
:1023500043460138A4F862002046CDF8009000F111
:1023600057FD68B9A068B0F5805FE5D12069002805
:10237000E2D136F8020B21686FF35F200885DFE7B2
:102380000327B6E7202084F8790084F87870B0E756
:102390007047000000000000FEE7000000000000A1
:1023A00080B540F26400C2F20040FEF71DFF80BD20
:1023B00080B540F2640244F60003C2F20042C5F662
:1023C0000003C2E9003040F6FF70D0601046916013
:1023D000FEF0D6FB002808BF80BDFDF7D1FF80BD11
:1023E00000F007004FF0FF3C80F00703042B28BFEC
:1023F0000423033838BF00200CFA03F399430CFA86
:1024000000F301FA00F022EA0301084370470000DC
:10241000704700000000000070B50446054654F8FF
:102420002C0FB0B105F1140604223046214600F10C
:10243000B3F895F8300040B105F128010422304688
:1024400000F032F8002085F83000002020600120E4
:1024500070BD002070BD000070B5044654F8283FE0
:10246000B3B116461A46054600F01EF8002E1CBFF2
:10247000206830600020A862284600F13DF848B18D
:1024800005F114000422214600F00EF8012070BD71
:10249000002070BD012085F8300070BD00000000F4
:1024A00081680069401A70472DE9F0410446806850
:1024B000904202D20020BDE8F0810E4620682169DA
:1024C00015460F1A974214D2E1683A460144304645
:1024D000A5EB0708FDF71BFFF019E1684246FDF781
:1024E00016FFA068C4F80080401BA0600120BDE872
:1024F000F081E1682A4601443046FDF708FF206874
:10250000A16828442269491BA160811A18BF0146AD
:1025100001202160BDE8F08170B5044600680138F3
:102520003F2807D343F2D25040F6C311C0F6000053
:1025300000F126FD60680438B0F5FE7F07D943F24C
:10254000D25040F6C411C0F6000000F119FDA06899
:102550000138802807D343F2D25040F6C511C0F6A7
:10256000000000F10DFD20690138802807D343F2F7
:10257000D25040F6C611C0F6000000F101FDE0683F
:102580000138802807D343F2D25040F6C711C0F675
:10259000000000F1F5FC44F20046C5F60206B06A00
:1025A00000F00300032801D1012070BD306820F045
:1025B00080603060FEF0DCFA054600BF3068000144
:1025C00006D5FEF0D5FA401B0228F7D9032070BDCE
:1025D000B06AE56894E80E0020F47C3040EA0130EF
:1025E000511E6FF35F214FF47E4202EB4322B06233
:1025F00092B24FF0FE4350184FF4FE01226901EBF6
:10260000054101F4FE0103EB0262084402F0FE41C1
:102610000844B063F06A616920F0C0000843F062CA
:10262000F06AA16920F020000843F062306840F0B1
:1026300080603060FEF09CFA044600BF3068000104
:1026400006D4FEF095FA001B0328F7D3032070BDD3
:10265000002070BD00000000704700000000000076
:102660004EF6885C4EF67F50CEF2000CCEF6F62089
:10267000DCF8001041F47001CCF8001044F2004185
:10268000C5F602010A6842F001020A6000220A61EE
:102690000B68184008608A61CA610A628A62CA626D
:1026A0000A634A638A63CA630A644A64086820F456
:1026B0008020086048F208100A66C5F20010012167
:1026C00001604FF000604CF8800C70470000000083
:1026D00080B540F2740241F20003C2F20042C4F23B
:1026E0000003C2E9003100211161C2E90210104665
:1026F000FFF03EFB002808BF80BDFDF741FE80BD16
:1027000080B540F274000022C2F2004001684A62C3
:10271000FFF07AFC80BD000010B540F6FF33028860
:10272000C4F2000398420FDCB0F1804F1DD040F29C
:102730000043C4F20003984217D040F60003C4F2ED
:102740000003984211D014E040F60043C4F20003A5
:1027500098420AD040F20043C4F20103984204D0E8
:102760000023C4F20103984203D122F070024B68A7
:102770001A434FF6FF7343F6FF7CC4F20003C4F222
:10278000010C984210DD60451ADD44F20003C4F2EA
:10279000010398422CD044F60003C4F2010398428E
:1027A00026D044F2004312E040F2FF73C4F200036B
:1027B000984211DCB0F1804F1AD040F2004313E090
:1027C0000023C4F20103984212D040F20043C4F245
:1027D000010398420CD00FE040F60003C4F200035E
:1027E000984205D040F60043C4F20003984203D15A
:1027F00022F44072CB681A4322F080024C69604593
:10280000D1F800E08B6842EA04020280C362A0F8BB
:1028100028E00EDD44F20002C4F20102904213D01F
:1028200044F60002C4F2010290420DD044F200428C
:1028300006E00022C4F20102904205D040F20042BC
:10284000C4F20102904201D109690186012141616E
:1028500010BD000000000000B0B582B004460020AA
:10286000E067FEF085F921680546096809070AD581
:102870004FF4001100226FF07E40009020462B465E
:1028800000F1C6FA70B92068006840070DD54FF412
:10289000800100226FF07E40009020462B4600F120
:1028A000B7FA10B1032002B0B0BD202084F879003F
:1028B00084F87A00002084F8780002B0B0BD0000EF
:1028C00080B5806B0021A0F86A10A0F86210FFF0BC
:1028D0002BFC80BD0000000001680A6822F49072A1
:1028E0000A608A6822F001028A60202180F87A104A
:1028F000704700000000000080B501680A6822F0FF
:1029000040020A60202180F87910FFF741FD80BD68
:1029100080B5B0F86C1090F87A20222A02680ED1A7
:10292000B2F824C08368B3F5805F01D103695BB15D
:10293000436E01EA0C015A1C426619700AE0108BC2
:1029400040F00800108380BD436E01EA0C0123F8BB
:10295000021B4366B0F86A100139A0F86A100A0435
:1029600018BF80BD01680A6822F490720A608A6804
:1029700022F001028A60202180F87A10FFF0A8FD81
:1029800080BD0000000000002DE9F04786B04BF646
:10299000214104464068C0F2BE01884207D343F299
:1029A000126040F61401C0F6100000F1E9FAA068C8
:1029B00030B1B0F5805F18BFB0F1805F40F060814A
:1029C00040F600492068C5F600094845E06816D081
:1029D0004FEA3030042807D343F2126040F61C015E
:1029E000C0F6100000F1CCFA206A40F40060B0F5A7
:1029F000006F11D043F2126040F61D0108E040F470
:102A00000050B0F5005F07D043F2126040F61801A5
:102A1000C0F6100000F1B4FA206930B1B0F5806F53
:102A200018BFB0F5C06F40F03481606910B120F07C
:102A30000C0038B143F2126040F62101C0F61000DC
:102A400000F19EFAA0694FEA3020042807D343F230
:102A5000126040F62201C0F6100000F191FAE06920
:102A600040F40040B0F5004F07D043F2126040F64A
:102A70002301C0F6100000F183FA606A0C2807D326
:102A800043F2126040F62401C0F6100000F178FA1B
:102A9000A06A40F00050B0F1005F07D043F212602E
:102AA00040F62501C0F6100000F16AFAA06AB0F104
:102AB000005F1CD1E06A80F00041C00040EA517024
:102AC000072800F22382012101FA00F010F0F30F31
:102AD00000F01C82206B4FEA7060062807D343F297
:102AE000126040F62901C0F6100000F149FA04F125
:102AF0000803216846F6F31549450DCB40EA03006B
:102B0000636943EA0003E06943EA0007A36A0E68C9
:102B1000CCF6FF7547EA030706EA050647EA06070B
:102B20000F604F6827F4405742EA07024A60A269E3
:102B30001CBF276A3A43B3F1005F03D1D4E90B37D6
:102B40001A433A434FF2FF478B68C1F2FF1744F232
:102B500000483B4047F2FF771A438A60CA6AC4F2D2
:102B60000007C5F6020822F00F03626AB9424FF06F
:102B7000800743EA0203CB6225DD40F6FF73C4F20F
:102B80000103994242DD494500F08C8041F2004347
:102B9000C4F20103994200F0988041F20003C4F2AC
:102BA0000103994240F0E280D8F85430C3F3C203E5
:102BB000052B00F2CE80DFE813F09600D000D400A1
:102BC000D8007801C80044F6FF33C4F200039942EC
:102BD00039DC44F20043C4F20003994200F08780DC
:102BE00044F60003C4F20003994240F0BF80D8F8D5
:102BF000543003F00703052B00F2AB80DFE813F03D
:102C0000A100AD00B100B5005501A50047F60003D5
:102C1000C4F20003994200F0788047F60043C4F202
:102C20000003994240F0A280D8F8543003F0070323
:102C3000052B00F28E80DFE813F0840090009400F2
:102C400098003801880044F60043C4F2000399421A
:102C500000F0698045F20003C4F20003994240F09D
:102C60008580D8F8543003F00703052B00F27180FB
:102C7000DFE813F06700730077007B001B016B0037
:102C800043F2126040F61501C0F6100000F178F929
:102C900096E643F212604FF40261C0F6100000F1B4
:102CA0006FF9C2E6D8F8583003F00703052B00F29D
:102CB0005080DFE813F00600520056005A00FA0078
:102CC0004A000227494554D1F3E0D8F85430C3F301
:102CD000C203052B3DD8DFE813F006004000440096
:102CE0004800E80038000127494542D1E1E0D8F822
:102CF000543003F00703052B2BD8DFE813F0220034
:102D00002E0032003600D6002600D8F8543003F0EA
:102D10000703052B1DD8DFE813F014002000240062
:102D20002800C8001800D8F8543003F00703052B1A
:102D30000FD8DFE813F00600120016001A00BA00E0
:102D40000A000027494514D1B3E02027494510D196
:102D5000AFE0802749450CD1ABE00427494508D1B5
:102D6000A7E04027494504D1A3E00827494500F0E2
:102D7000A080B0F5004F40F04D80402F4FF0010093
:102D80004FF0000100F20D82DFE817F0410028014A
:102D90000B020B0232010B020B020B023C010B0275
:102DA0000B020B020B020B020B020B024A010B027D
:102DB0000B020B020B020B020B020B020B020B02AB
:102DC0000B020B020B020B020B020B0257010B0250
:102DD0000B020B020B020B020B020B020B020B028B
:102DE0000B020B020B020B020B020B020B020B027B
:102DF0000B020B020B020B020B020B020B020B026B
:102E00000B020B020B020B020B020B026501FEF719
:102E1000CBFCE5E0402F4FF0010000F27681DFE8C7
:102E200017F041002801740174013A017401740122
:102E3000740144017401740174017401740174011A
:102E400074015401740174017401740174017401FA
:102E500074017401740174017401740174017401CA
:102E600074016201740174017401740174017401CC
:102E700074017401740174017401740174017401AA
:102E8000740174017401740174017401740174019A
:102E9000740174017401740174017401740174018A
:102EA00074017701FEF780FCE5E0102749457FF4C7
:102EB00060AFBE1E40F600191E2EC0F23D091BD8A1
:102EC0004FF0000A4946DFE806F0102A322A2A2A83
:102ED0003A2A2A2A2A2A2A2A4B2A2A2A2A2A2A2A21
:102EE0002A2A2A2A2A2A2A2A47004FF0000AFDF015
:102EF000B3FE0146B1BB16E0402F10D16846FDF08D
:102F0000C3FE4FF0000A019961BB0CE043F212606E
:102F100040F62801C0F6100000F132F8DAE54FF073
:102F2000010A0021F1B9504606B0BDE8F08703A8B8
:102F3000FEF7FEF94FF0000A049999B9F3E7D8F8C3
:102F4000000049F200018006C0F2D03100F1F680A5
:102F50004FF0000A31B9E6E74FF0000A4FF40041A4
:102F60000029E0D0656805EB450081424FF0010083
:102F7000C0F0CB802A03914200F2C7801E2E4FF092
:102F8000010000F2E680DFE816F01F007D0140013D
:102F90007D017D017D015E017D017D017D017D0160
:102FA0007D017D017D016E017D017D017D017D0140
:102FB0007D017D017D017D017D017D017D017D0121
:102FC0007D017D017D013401FDF046FE616A43F221
:102FD0003052C0F6100232F8112021E1FEF7FCFB5E
:102FE000616A43F23052C0F6100232F81110CFE09D
:102FF00003A8FEF79DF943F23051606AC0F6100154
:10300000049A31E0D8F80000800600F1B18043F264
:10301000305049F20001C0F61000C0F2D03107E094
:1030200043F2305040F60011C0F61000C0F23D01EE
:1030300030F81200B1FBF0F0ACE043F230504FF446
:103040000041C0F6100030F81200B1FBF0F06168EA
:1030500042004808A1E06846FDF016FE43F23051F8
:10306000606AC0F61001019A31F81000B2FBF0F06E
:1030700090E0FEF7B1FB616A43F23052C0F61002F5
:1030800032F811106268B0FBF1F000EB52002168D9
:10309000B0FBF2F0A7E003A8FEF74AF943F2305183
:1030A000606AC0F61001049A3BE0D8F80000800680
:1030B00000F1828043F23050C0F6100030F8120068
:1030C00049F20002C0F2D03209E043F23050C0F6BB
:1030D000100030F8120040F60012C0F23D026368A2
:1030E000B2FBF0F07BE043F230506368C0F61000B2
:1030F00030F812004FF40042B2FBF0F000EB530046
:10310000B0FBF3F080B2C860002006B0BDE8F087E5
:103110006846FDF0B9FD43F23051606AC0F6100117
:10312000019A31F810006168B2FBF0F0226800EB00
:103130005100B0FBF1F080B2D06056E0D8F800004A
:103140004FF0000AC0F3C100C14000297FF40AAF6C
:10315000E9E6402F40F096806846FDF095FD606AF4
:1031600043F23051C0F6100131F81020019857E0B9
:1031700043F23051D8F80000C0F61001C0F3C1008E
:1031800031F8121049F20002C0F2D03222FA00F0F7
:10319000B0FBF1F0616840004A081044B0FBF1F167
:1031A00000204FF6F07223680A40C1F34201114437
:1031B000D96006B0BDE8F08743F23053D8F800007C
:1031C000C0F61003C0F3C10033F8122049F2000327
:1031D000C0F2D03323FA00F06368B0FBF2F000EBEA
:1031E0005300B0FBF3F080B2C860002006B0BDE829
:1031F000F087606A43F23051C0F6100131F81000D8
:103200004FF40041B1FBF0F036E003A8FEF790F870
:10321000606A43F23051C0F6100131F81020049872
:10322000656800210023FDF741F80902002341EA07
:1032300010612A46000210EB550041F10001FDF734
:1032400035F801461DE0D8F8000080062BD4606AEE
:1032500043F23051C0F6100131F8102049F200005D
:10326000C0F2D030DDE7606A43F23051C0F61001A1
:1032700031F81000B9FBF0F0000200EB5500B0FB94
:10328000F5F150464FF6FF43A1F54072C0F20F032F
:103290009A4204D82268D16006B0BDE8F0870120C8
:1032A00006B0BDE8F087D8F80000616A43F23052FA
:1032B00049F20003C0F3C100C0F61002C0F2D033DF
:1032C00032F8112023FA00F0ABE700000000000004
:1032D0004EF60C50CEF200000068C0F3022070479A
:1032E00010B504460420FEF713FE40F2B470C2F29B
:1032F0000040046010BD0000FCF0B6FEFDF77CFF4E
:10330000A020052102225023FFF07EFA4FF4C8705E
:10331000FFF7E6FF052040F2E241FFF749F842F2ED
:103320000F7042F20F71FFF7D3F9FFF081FEFFF04B
:103330000BFA4FF4E130FFF0AFFD4FF4E130FFF056
:10334000F3FAFDF72DF843F24F6106A0C0F6000135
:10335000372200F0B7F800BF00F01AF8FFF720F8A6
:10336000FAE700BF44454255473A2025733A2564A1
:103370003A20CDA8D1B6D7AABDD3B0E5B3F5CABC23
:10338000BBAFB3C9B9A62D5447313030300D0A0058
:1033900010B5C0B040F6A010C2F20040FFF0ACF88B
:1033A00000284ED020AC80212046FCF042FE68462A
:1033B0008021FCF03EFE40F6A0100022C2F2004048
:1033C0002146FFF749F89DF88300032839D8BDF856
:1033D0008510090409BADFE800F00230183001292D
:1033E00003D8684620A900F02FF89DF88400012832
:1033F00014D030BB43F2A66043F27A61C0F60000FD
:10340000C0F600016E22012312E0A1F2014004285F
:1034100012D8DFE800F012121212120043F2A66076
:1034200043F27A61C0F60000C0F600017222022366
:1034300000F048F840B010BD0029684620A900F00F
:1034400003F840B010BD0000F0B581B004460D4651
:10345000B8B1FDB1B5F80300B5F8011000040F1FB5
:10346000691D06BA2046BAB200F8017BFCF74FFF8F
:103470000120214610FA87F23046FDF711F801B01D
:10348000F0BD43F27A602521C0F60000FFF078FD20
:10349000002DDFD143F27A602621C0F60000FFF054
:1034A0006FFDD7E70000000080B50246002840F21B
:1034B00000404FF08001C5F6020018BF0122FDF068
:1034C00037FB80BD0FB4054B10B503A9044A029821
:1034D000FFF014FE10BC5DF814FB000079301008FA
:1034E0000000002402E008C8121F08C1002AFAD117
:1034F00070477047002001E001C1121F002AFBD174
:1035000070472DE9F041044600251E461746880401
:1035100004D405E039462020B0476D1C641EF9D55F
:103520002846BDE8F0812DE9F041044600251E46FD
:103530009046C80301D5302700E02027880404D531
:1035400005E041463846B0476D1C641EF9D5284653
:10355000BDE8F0812E2E2F2E2E2F4C6962726172E3
:103560006965732F53544D3332483778785F48413B
:103570004C5F4472697665722F5372632F73746D5A
:103580003332683778785F68616C5F636F72746537
:10359000782E63002E2E2F2E2E2F4C6962726172B0
:1035A0006965732F53544D3332483778785F4841FB
:1035B0004C5F4472697665722F5372632F73746D1A
:1035C0003332683778785F68616C5F697764672E3B
:1035D00063002E2E2F2E2E2F4C6962726172696548
:1035E000732F53544D3332483778785F48414C5FDE
:1035F0004472697665722F5372632F73746D333220
:10360000683778785F68616C5F7263635F65782E96
:1036100063002E2E2F2E2E2F4C6962726172696507
:10362000732F53544D3332483778785F48414C5F9D
:103630004472697665722F5372632F73746D3332DF
:10364000683778785F68616C5F74696D2E63002EEF
:103650002E2F2E2E2F557365722F6D61696E2E637E
:10366000002E2E2F2E2E2F557365722F66646361E8
:103670006E2F666463616E2E63002E2E2F2E2E2F0A
:10368000557365722F436F6D6D616E64416E616C31
:103690007973652F636F6D6D616E645F616E616CD0
:1036A0007973652E630044454255473A2025733AA5
:1036B00025643A20B8F8B5DA2564B8F6CDA8D1B6B5
:1036C000D7AABDD3B0E5B7A2CBCDD0C5CFA200005D
:1036D000F03600080000002418000000E434000860
:1036E0000837000818000024C80E0000F434000851
:1036F000000000000090D0030090D0030100000003
:083700001000000000000000B1
:020000040810E2
:100000000648804706480047FEE7FEE7FEE7FEE7B2
:10001000FEE7FEE7FEE7FEE7FEE7FEE761260008F3
:1000200099020008D2B201E000F8012B491EFBD270
:1000300070470022F6E710B513460A4604461946F3
:10004000FFF7F0FF204610BD202A04DB203A21FAFA
:1000500002F00021704721FA02F3D040C2F12002E1
:10006000914008431946704780B502F0B5FB02F095
:1000700083FB4EF69C70CEF20000016841F0040153
:10008000016080BD0000000070470000000000001B
:100090002DE9F04F81B00168D0F83CE0D0E90D9235
:1000A000C0F86C904FF6FC74D1F88430A34343EA57
:1000B0008903C1F88430D1F88430009223F47F039F
:1000C00043EA0243C1F8843002EB09030367D1F825
:1000D00088406FF38F0444EA8304C1F88840D1F864
:1000E000884024F47F0444EA0E44C1F8884003EBBE
:1000F0004E044467D1F8A0306FF38F0343EA8403C2
:10010000C1F8A030D1F8A050D0F840B025F4FE05D9
:1001100045EA0B45C1F8A050D0F8448008FB0B44D9
:10012000846708FB0BF8D1F8B05025F0FC0545EAD0
:100130008405C1F8B050D1F8B050866C25F4FE05A6
:1001400045EA0645C1F8B050D0F84CA00AFB064578
:10015000C5670AFB06FBD1F8AC4024F0FC0444EA76
:100160008504C1F8AC40D0E9144202FB0457C0F842
:10017000807002FB04FAD1F8F0504AF600426FF3A7
:100180008F05C4F2000245EA8705C1F8F050D1F8A6
:10019000F030856D23F47C1302EB890243EA0543BA
:1001A000C1F8F03007EB4503C0F88430D1F8C070D7
:1001B00027F0FC0747EA8307C1F8C070D1F8C07088
:1001C000D0F85CC027F47C1747EA0C47C1F8C07030
:1001D000876E07FB0C33C0F8883007FB0CFCD1F8A6
:1001E000C040036E24F07C5444EA0364C1F8C0406C
:1001F0000099C26602EB8101016701EBCE044467FE
:1002000004EB880606EB8B0101EB8A04C0F8804002
:10021000C0E91E6107FB03F104EBC50303EB8C0788
:10022000C0F884304BF2FC53C0F8887007EB8101B2
:10023000C4F200039942C0F8901008D9D0F8981081
:1002400041F02001C0F8981001B0BDE8F08FD0F85F
:1002500090108A4206D2002142F8041BD0F8903058
:100260009A42F9D301B0BDE8F08F00000000000011
:1002700010B5C0B190F83510022916D110220168CE
:10028000C4F20202914214D340F2B842C4F2020214
:1002900091420ED8042280F83520086820F0010031
:1002A0000860002010BD012010BD802141650120A3
:1002B00010BD40F2B9430268C4F2020340F20F0CD1
:1002C0009942134638BF0B46C4F2020CD0F860E0E6
:1002D0006145D0F864C098BF1346C16E146824F01D
:1002E0000E0414601A6822F001021A60DEF8002081
:1002F00022F48072CEF8002045F20442C36DC5F6A8
:1003000002024FF0010E846E0EFA03F31360CCF874
:10031000044031B10A6822F480720A60D0E91C12EC
:100320004A60002180F8341080F835E0026D0AB18F
:1003300090470021084610BD40F22040C5F600005D
:10034000016841F0010101607047000000000000F9
:1003500070B500230C46CCF2300315461942064610
:1003600007D043F2585040F68D61C0F6100002F0FD
:1003700007FE96F89400012803D096F8940002280E
:100380000FD13068816D214207D0816D2140A1429B
:100390000CD1C16D41F0020109E0C16D41F00101D4
:1003A00005E006F19801012002221DE00321C1654C
:1003B000A10504D5D0F8E0102943C0F8E01061058C
:1003C00004D5D0F8E4102943C0F8E4104FF6FF71CB
:1003D000426DC3F6CF712140114341654AF61401C5
:1003E000A20F0020C4F200010B681A430A6070BD1E
:1003F0002DE9F0410D4603291E461746044607D352
:1004000043F258504FF45E71C0F6100002F0B8FD90
:10041000032F07D343F2585040F27931C0F6100051
:1004200002F0AEFD022EDDF8188007D343F25850DB
:1004300040F27A31C0F6100002F0A2FDB8F1020FCE
:1004400007D343F2585040F27B31C0F6100002F05F
:1004500097FD94F8940001280CD1B800216840EA77
:10046000051040EA460040EA0800C1F8800000207C
:10047000BDE8F081D4F8980040F00400C4F898007A
:100480000120BDE8F081000070B590F89450012D76
:1004900003D090F89450022D2CD1402914D1056836
:1004A000D5F8A04014F4FE0F1CBFD5F8A4405FEAB5
:1004B000446400F08080D5F8A45000F17404C5F3C2
:1004C000052E456CF44624E0412918D10568D5F87D
:1004D000B04014F4FE0F1CBFD5F8B4405FEA44648A
:1004E00069D0D5F8B45000F17804C5F3052EC56C79
:1004F000F4460EE0D0F8981041F002015FE0056D7F
:100500008D4258D900F17C04D0F854E04FF0000C33
:100510000D4605FB0EF6246854F8265015F080456C
:10052000556054F826E02EF0604508BFCEF38A45AA
:1005300004EB860E156054F8265005F000559560C2
:1005400054F8264004F000441461BEF80440D4611D
:10055000DEF8044004F47024D460DEF80450B4F5EE
:10056000803F05F480155561DEF8045005F4001550
:1005700095619EF8075005F07F051562DEF804507E
:100580004FEAD57454620FD30EF1080543F2485E6A
:100590000024C0F6100E00BF2E5D1E550134D68912
:1005A0001EF80660B442F7D340290CD10068C0F8A9
:1005B000A8C0002070BDD0F8981041F02001C0F80C
:1005C0009810012070BD412904D10068C0F8B8C05E
:1005D000002070BD1F2907D80068012202FA01F12E
:1005E000C0F89810002070BD00682039012202FA7E
:1005F00001F1C0F89C10002070BD00000000000058
:1006000070470000000000002DE9F041002800F0D4
:1006100055814AF200080446C4F2000800684045CB
:1006200002D108F5807161604AF2004140F48060B7
:10063000C4F20001884206D043F25850E721C0F6C8
:10064000100002F09DFCA06830B1B0F5807F18BFAB
:10065000B0F5407F40F08081E068052806D343F282
:100660005850E921C0F6100002F08AFC207C0228D4
:1006700006D343F25850EA21C0F6100002F080FC85
:10068000607C022806D343F25850EB21C0F61000DC
:1006900002F076FCA07C022806D343F25850EC21ED
:1006A000C0F6100002F06CFC60690138B0F5007F04
:1006B00006D343F25850ED21C0F6100002F060FC62
:1006C000A0690138802806D343F25850EE21C0F6C5
:1006D000100002F055FCE0690238FF2806D343F20F
:1006E0005850EF21C0F6100002F04AFC206A023890
:1006F0007F2806D343F25850F021C0F6100002F0D4
:100700003FFCA068B0F5407F2BD1606A01382028FB
:1007100006D343F25850F321C0F6100002F030FC2B
:10072000A06A0138102806D343F25850F421C0F6CD
:10073000100002F025FCE06A0138202806D343F2BD
:100740005850F521C0F6100002F01AFC206B013859
:10075000102806D343F25850F621C0F6100002F0DC
:100760000FFCA06B812806D343F25850F821C0F645
:10077000100002F005FCE06B412806D343F258500C
:10078000F921C0F6100002F0FBFB206C412806D3D3
:1007900043F25850FA21C0F6100002F0F1FB206C31
:1007A00044F2F055C0F2040548B1606C122800F222
:1007B000DB80012101FA00F0284200F0D580A06C16
:1007C000412806D343F25850FF21C0F6100002F032
:1007D000D7FBA06C48B1E06C122800F2CD8001215B
:1007E00001FA00F0284200F0C780206D412807D3AD
:1007F00043F258504FF48271C0F6100002F0C0FB73
:10080000206D48B1606D122800F2BF80012101FA0D
:1008100000F0284200F0B980A06D212807D343F2F0
:10082000585040F20911C0F6100002F0A9FBD4E9BB
:1008300017010844212807D343F258504FF485711B
:10084000C0F6100002F09CFB206E68B1606E40F0B4
:100850008040B0F1804F07D043F2585040F20D1164
:10086000C0F6100002F08CFBD4E91701C84209D091
:10087000A06E122800F21881012101FA00F028422E
:1008800000F0128194F8940028B9002084F89500B3
:10089000204600F78DFA2068816921F010018161FE
:1008A00000F066F9054600BF20688169090708D590
:1008B00000F05EF9401B0B28F6D312E00120BDE8E2
:1008C000F081816941F00101816100F051F9054633
:1008D00020688169C90710D100F04AF9401B0B2834
:1008E000F6D3D4F89800032140F00100C4F8980032
:1008F000012084F89410BDE8F081816941F0020183
:100900008161217C826922F04002012918BF4032B6
:100910008261617C826922F48042012908BF02F56C
:1009200080428261A17C826922F48052012918BF31
:1009300002F580528261816921F44073D4E9021288
:1009400043EA01038361BAB3022A31D0012A25D1D7
:10095000826942F004022EE043F25850E821C0F6CA
:10096000100002F00DFB77E643F25850FD21C0F66F
:10097000100002F005FB22E743F258504FF481715A
:10098000C0F6100002F0FCFA2FE743F2585040F294
:100990000711C0F6100002F0F3FA3DE78369032A5D
:1009A00043F080038361036943F01002026103D1C5
:1009B000826942F020028261D4E90552E369561E41
:1009C0006FF0FF02276A02EB0323013F43EA46630D
:1009D000B1F5407F47EA030740F20003CFF6FF730B
:1009E00003EB054647EA0601C16110D1D4E90B6566
:1009F000D4E90917013F02EB06226FF00F063A43D4
:100A000006EB05173A4303EB01411143C160216E28
:100A100029B1626ED0F8C0301A43C0F8C020E26D30
:100A2000CA4243F20C51C0F6100108D0D0F8C820D9
:100A3000A36E22F00702CB5C1A43C0F8C820226CD8
:100A400042B1D0F8BC20636C22F00702CB5C1A43A1
:100A5000C0F8BC20A26C4AB1D0F8BC20E36C22F0F4
:100A60007002CB5C42EA0312C0F8BC20226D4AB18E
:100A7000D0F8BC20636D22F4E062C95C42EA012137
:100A8000C0F8BC10404504D16068816821F00301C2
:100A900081602046FFF7FCFA0020C4F8980001218D
:100AA00084F89410BDE8F08143F2585040F21111DF
:100AB000C0F6100002F064FAE4E600000000000056
:100AC000704700000000000090F8941001290CD13C
:100AD000022180F8941001688A6922F001028A617B
:100AE0000021C0F8981008467047D0F8981041F0DF
:100AF0000401C0F8981001207047000000000000B9
:100B00007047000000000000704700000000000077
:100B10007047000000000000704700000000000067
:100B20007047000000000000704700000000000057
:100B300070B50C461646054621B16EB1012E0DD199
:100B40002C8370BD43F297504FF4D971C0F610005A
:100B500002F016FA002EF1D16C8370BD43F297506B
:100B600040F2B311C0F6100002F00AFA2C8370BDF7
:100B700040F6D820C2F20040006870470000000034
:100B8000B0B5002846D044F6000104460068C5F61A
:100B90000001884206D043F29450B721C0F600000D
:100BA00002F0EEF96068072806D343F29450B821AA
:100BB000C0F6000002F0E4F9A068B0F5805F06D34B
:100BC00043F29450B921C0F6000002F0D9F9E06870
:100BD000B0F5805F06D343F29450BA21C0F600000E
:100BE00002F0CEF994E807004CF6CC43036045F2DE
:100BF0005553036041608260FFF7BAFF054600BFAE
:100C00002068C16841B1FFF7B3FF401B3028F7D916
:100C10000320B0BD0120B0BD0269E1688A4204D161
:100C20004AF6AA2101600020B0BD01610020B0BDDC
:100C300040F20C0040F6D821C2F20040C2F200415E
:100C400000780A6810440860704700000000000047
:100C5000704700000000000080B500F789FD44F2F5
:100C600020411022C5F60201096892FAA2F2B2FAF6
:100C700082F201F07001D14043F21F52C0F610021F
:100C8000515CC84080BD000010B544F24041C5F63B
:100C9000020151F8182C51F818CC02F0030351F856
:100CA00014EC022B4A680ED093B951F8403C9B06D5
:100CB00049F20003C0F2D0330ED551F8404CC4F3D2
:100CC000C104E34008E047F64003C0F27D1303E0AF
:100CD00040F60013C0F23D03C2F3CC020EF4807460
:100CE00062439FED242A00EE102A0A686FF35F2208
:100CF00001EE102ACCF30552B8EE400AB3FBF2F233
:100D0000B8EE411A00EE021A02EE102A0A68B7EE97
:100D1000000AC2F34622B8EE422A013231EE000A3E
:100D200001EE102A20EE020AB8EE411A80EE011AF6
:100D3000BCEEC11A80ED001A0A68C2F30642013205
:100D400001EE102AB8EE411A80EE011ABCEEC11A6B
:100D500080ED011A0968C1F30661013101EE101A34
:100D6000B8EE411A80EE010ABCEEC00A80ED020A1C
:100D700010BD00BF000000392DE9F04381B00446EA
:100D8000C07844F22C480007C5F6020801D40026BA
:100D900037E0606E4FEA305003280DD80026DFE8B8
:100DA00000F0020E1B18D8F80000002640F40030B6
:100DB000C8F8000076B91CE001265EB919E0D8F841
:100DC000000040F40010C8F80000201D01F7A4FB4B
:100DD000064676B1B14616E0D8F8000040F08070C3
:100DE000C8F8000004F1240001F00EFC0646002EB5
:100DF000F0D1D8F82400616E20F440100843C8F800
:100E000024004FF000096078C0073AD0606D0428D4
:100E100008D8DFE800F00B14210303004EB349EAC1
:100E200006092EE00126002EF9D122E0D8F80000B4
:100E300040F40030C8F80000002EF0D119E0D8F8D6
:100E4000000040F40020C8F80000201D01F764FBFA
:100E50000646002EE3D10CE0D8F8000040F48000F4
:100E6000C8F8000004F1240001F0CEFB0646002E75
:100E7000D5D1D8F82400616D20F007000843C8F8E8
:100E80002400607880073CD5A06D4FEAB01004289C
:100E900008D8DFE800F00B14210303004EB349EA41
:100EA00006092EE00126002EF9D122E0D8F8000034
:100EB00040F40030C8F80000002EF0D119E0D8F856
:100EC000000040F40020C8F80000201D01F724FBBA
:100ED0000646002EE3D10CE0D8F8000040F4800074
:100EE000C8F8000004F1240001F08EFB0646002E35
:100EF000D5D1D8F82400A16D20F4E0700843C8F8DB
:100F00002400607840073ED5D4F8A4004FEA705022
:100F1000042808D8DFE800F00B14210303004EB3C7
:100F200049EA06092FE00126002EF9D122E0D8F87F
:100F3000000040F40030C8F80000002EF0D119E0A5
:100F4000D8F8000040F40020C8F80000201D01F788
:100F5000E3FA0646002EE3D10CE0D8F8000040F496
:100F60008000C8F8000004F1240001F04DFB0646A3
:100F7000002ED5D1D8F82C00D4F8A41020F46000AD
:100F80000843C8F82C00607800073ED5D4F8A800C4
:100F90004FEA3060042808D8DFE800F00B14210382
:100FA00003004EB349EA06092FE00126002EF9D1CD
:100FB00022E0D8F8000040F40030C8F80000002E0D
:100FC000F0D119E0D8F8000040F40020C8F8000083
:100FD000201D01F7A1FA0646002EE3D10CE0D8F857
:100FE000000040F48000C8F8000004F1240001F083
:100FF0000BFB0646002ED5D1D8F82C00D4F8A8104B
:1010000020F0E0600843C8F82C00E07880072DD578
:10101000A06C4FEA3010032807D8DFE800F0020A7E
:101020001302DEB149EA060920E00126002EF9D1BB
:1010300014E0D8F8000040F40030C8F80000002E9A
:10104000F0D10BE0D8F8000040F40010C8F8000020
:10105000201D01F761FA0646002EE3D1D8F82000E2
:10106000A16C20F030000843C8F820006078C0066A
:101070003CD5E06D4FEA3030042808D8DFE800F0B6
:101080000B14210303004EB349EA06092EE00126A2
:10109000002EF9D122E0D8F8000040F40030C8F862
:1010A0000000002EF0D119E0D8F8000040F4002034
:1010B000C8F80000201D01F72FFA0646002EE3D1E4
:1010C0000CE0D8F8000040F48000C8F8000004F1FB
:1010D000240001F099FA0646002ED5D1D8F8240054
:1010E000E16D20F4E0400843C8F8240060788006F1
:1010F00030D5206E4FEA3040052808D8DFE800F0F0
:10110000030B15030303EEB149EA060922E00126A9
:10111000002EF9D116E0D8F8000040F48010C8F88D
:101120000000201D01F7F8F909E0D8F8000040F4AC
:101130000000C8F8000004F1240001F065FA06463A
:10114000002EE1D1D8F82400216E20F4E0200843DD
:10115000C8F824006078400632D5D4F8AC004FEAD5
:101160003070052808D8DFE800F0030B15030303EF
:10117000EEB149EA060923E00126002EF9D116E076
:10118000D8F8000040F48010C8F80000201D01F7D6
:10119000C3F909E0D8F8000040F40000C8F80000E6
:1011A00004F1240001F030FA0646002EE1D1D8F80F
:1011B0002C00D4F8AC1020F0E0400843C8F82C0014
:1011C0006078000625D5E06EF8B1B0F1005F12D06E
:1011D000B0F1805F2BD1D8F8000040F40030C8F89F
:1011E0000000A6B9D8F82400E16E20F04050084372
:1011F000C8F824000DE0D8F8000040F48010C8F8CA
:101200000000201D01F788F90646002EEAD049EAC1
:101210000609E078C0072FD0606C03280BD8DFE800
:1012200000F0020E1702FEB149EA060924E0012689
:10123000002EECD1D6E70126002EF5D114E0D8F827
:10124000000040F40030C8F80000002EECD10BE0A4
:10125000D8F8000040F40010C8F80000201D01F785
:101260005BF90646002EDFD1D8F82000616C20F033
:1012700003000843C8F82000A078400640F14F82E0
:1012800040F2FF21D4F8B000C0F2020188421ADC1B
:1012900040F2FF21C0F2010188423ADCB0F5034F71
:1012A00075DAB0F5864F80F2D080B0F50C5F80F231
:1012B0005681B0F5807F00F0EB81B0F5007F00F043
:1012C000E78100F045BD40F2FF21C0F203018842F2
:1012D0003FDC48F2FF21C0F20201884269DC44F29F
:1012E000FF21C0F20201884200F3BD8042F2FF21DB
:1012F000C0F20201884200F33A8140F20031C0F2AC
:101300000201884200F0C48141F20031C0F20201C2
:10131000BBE148F2FF21C0F20101884263DC44F2E4
:10132000FF21C0F20101884200F3B08042F2FF21A8
:10133000C0F20101884200F3268140F20031C0F280
:101340000101884200F0A48141F20031C0F20101A4
:101350009BE148F2FF21C0F2030188425DDC44F2C8
:10136000FF21C0F20301884200F3A38042F2FF2173
:10137000C0F20301884200F3118140F20031C0F253
:101380000301884200F0848141F200317BE1B0F535
:10139000434F80F29F80B0F5234F80F20881B0F573
:1013A000034F00F07581B0F5134F00F0718100F02C
:1013B000CFBC4CF2FF21C0F20201884200F39880BA
:1013C0004AF2FF21C0F20201884200F3F68048F29F
:1013D0000031C0F20201884200F05A8149F2003126
:1013E000C0F2020151E14CF2FF21C0F2010188423A
:1013F00000F391804AF2FF21C0F20101884200F31C
:10140000E78048F20031C0F20101884200F04081DB
:1014100049F20031C0F2010137E14CF2FF21C0F284
:101420000301884200F38A804AF2FF21C0F20301DF
:10143000884200F3D88048F20031C0F203018842AC
:1014400000F0268149F200311DE1B0F5C64F80F26F
:10145000D380B0F5864F00F01B81B0F5A64F00F0A9
:10146000178100F075BC46F2FF21C0F202018842EC
:1014700000F3C78044F20031C0F20201884200F05C
:10148000078145F20031C0F20201FEE046F2FF2181
:10149000C0F20101884200F3BF8044F20031C0F283
:1014A0000101884200F0F48045F20031C0F20101F0
:1014B000EBE046F2FF21C0F20301884200F3B7805F
:1014C00044F20031C0F20301884200F0E18045F2AD
:1014D0000031D8E0B0F5634F80F2B280B0F5434FF1
:1014E00000F0D680B0F5534F00F0D28000F030BC51
:1014F0004EF2FF21C0F20201884200F3A6804CF2B6
:101500000031C0F20201884200F0C2804DF2003189
:10151000C0F20201B9E04EF2FF21C0F2010188429F
:1015200000F39E804CF20031C0F20101884200F0CD
:10153000AF804DF20031C0F20101A6E04EF2FF2172
:10154000C0F20301884200F396804CF20031C0F2F1
:101550000301884200F09C804DF2003193E000F0DE
:101560009780B0F54C5F00F0938000F0F1BB42F241
:101570000031C0F20201884200F08A8043F200315B
:10158000C0F2020181E042F20031C0F20101884262
:101590007ED043F20031C0F2010176E042F2003128
:1015A000C0F20301884273D043F200316BE06FD088
:1015B000B0F5334F6CD000F0CBBB4AF20031C0F233
:1015C0000201884264D04BF20031C0F202015CE0BB
:1015D0004AF20031C0F20101884259D04BF2003189
:1015E000C0F2010151E04AF20031C0F20301884229
:1015F0004ED04BF2003146E04AD0B0F5E64F47D02E
:10160000A6E346F20031C0F20201884240D047F220
:101610000031C0F2020138E046F20031C0F20101AF
:10162000884235D047F20031C0F201012DE046F288
:101630000031C0F2030188422AD047F2003122E093
:1016400026D0B0F5734F23D082E34EF20031C0F2C2
:10165000020188421CD04FF20031C0F2020114E0B6
:101660004EF20031C0F20101884211D04FF2003138
:10167000C0F2010109E04EF20031C0F203018842DC
:1016800006D04FF20031C0F20301884240F060837F
:10169000D8F8D40340F48070C8F8D403FFF768FA90
:1016A000074600BFD8F8D403C00505D4FFF760FA99
:1016B000C01B6528F6D303267EBBD8F84410D4F8A7
:1016C000B000414011F4407F11D0D8F84410D8F850
:1016D000442042F48032C8F84420D8F8442021F451
:1016E000407122F48032C8F84420C8F84410B0F5A4
:1016F000807F0FD1FFF73CFA074641F2893500BFE2
:10170000D8F84400800705D4FFF732FAC01BA8427E
:10171000F6D30326002E00F0F68249EA0609207867
:10172000C00730D0A06F4FEAF000052808D8DFE8E6
:1017300000F0030B15030303EEB149EA060922E0AA
:101740000126002EF9D116E0D8F8000040F48010F0
:10175000C8F80000201D00F7DFFE09E0D8F80000FF
:1017600040F40000C8F8000004F1240000F04CFF31
:101770000646002EE1D1D8F82800A16F20F03800ED
:101780000843C8F82800207880072ED5606F052808
:1017900008D8DFE800F0030B15030303EEB149EAB4
:1017A000060922E00126002EF9D116E0D8F8000043
:1017B00040F48010C8F80000201D00F7ADFE09E0DD
:1017C000D8F8000040F40000C8F8000004F124003C
:1017D00000F01AFF0646002EE1D1D8F82800616F0C
:1017E00020F007000843C8F828002078400730D5CB
:1017F000D4F89000052808D8DFE800F0030B1503A3
:101800000303EEB149EA060923E00126002EF9D1CF
:1018100016E0D8F8000040F48010C8F80000201D41
:1018200000F77AFE09E0D8F8000040F40000C8F89C
:10183000000004F1240000F0E7FE0646002EE1D18E
:10184000D8F82C00D4F8901020F007000843C8F80E
:101850002C002078800632D5D4F88C004FEA307006
:10186000052808D8DFE800F0030B15030303EEB1E9
:1018700049EA060923E00126002EF9D116E0D8F83E
:10188000000040F40020C8F80000201D00F744FECE
:1018900009E0D8F8000040F08070C8F8000004F1BA
:1018A000240000F0B1FE0646002EE1D1D8F8280051
:1018B000D4F88C1020F0E0400843C8F828002078C5
:1018C000400632D5D4F898004FEAB020052808D851
:1018D000DFE800F0030B15030303EEB149EA060944
:1018E00023E00126002EF9D116E0D8F8000040F4DC
:1018F0000020C8F80000201D00F70EFE09E0D8F80F
:10190000000040F08070C8F8000004F1240000F0EE
:101910007BFE0646002EE1D1D8F82C00D4F89810B2
:1019200020F4E0500843C8F82C002078000632D597
:10193000D4F89C004FEA7030052808D8DFE800F0A2
:10194000030B15030303EEB149EA060923E0012660
:10195000002EF9D116E0D8F8000040F40020C8F8B5
:101960000000201D00F7D8FD09E0D8F8000040F085
:101970008070C8F8000004F1240000F045FE06461F
:10198000002EE1D1D8F82C00D4F89C1020F460404F
:101990000843C8F82C002078000723D5D4F880002D
:1019A0004FEA3030042807D343F2D25040F2464188
:1019B000C0F6000001F0E4FAD4F88010B1F5805FC1
:1019C00009D104F1240000F01FFED8F8000040F017
:1019D0008071404605E0404650F8282F22F44052DE
:1019E000114301602078C0062CD5D4F89400B0F5DE
:1019F000007F04DA78B1B0F5807F0CD003E00AD024
:101A0000B0F5405F07D043F2D25040F25941C0F6E2
:101A1000000001F0B5FAD4F89400B0F5807F0AD147
:101A200004F1240000F0F0FDD8F8000040F08070D0
:101A3000C8F8000006E0D8F82C1021F440710843E3
:101A4000C8F82C00A07800072DD5D4F8A000B0F578
:101A5000003F24D0B0F5803F16D0002843D1D8F8FD
:101A6000000040F40020C8F80000201D00F754FDDD
:101A70000646B6B9D8F82C00D4F8A01020F44030AF
:101A80000843C8F82C000EE0D8F8000040F0807041
:101A9000C8F8000004F1240000F0B6FD0646002E50
:101AA000E8D049EA0609A07840072FD5D4F8840089
:101AB000B0F5401F26D0B0F5001F18D0B0F5801F3C
:101AC00040F00D81D8F8000040F40030C8F8000064
:101AD000D6B9D8F82800D4F8841020F44010084370
:101AE000C8F8280012E00126002EDAD1C2E7D8F8A3
:101AF000000040F40000C8F8000004F1240000F0E9
:101B000083FD0646002EE4D049EA0609A078C00706
:101B100033D0E06C40F48030B0F5803F07D043F222
:101B2000D25040F2C241C0F6000001F029FAE06C48
:101B3000B0F5803F10D0D8B9D8F8000040F400309C
:101B4000C8F80000BEB9D8F82000E16C20F480305D
:101B50000843C8F8200010E0D8F8000040F4001056
:101B6000C8F80000201D00F7D7FC06461EB9EAE7BA
:101B70000126002EE7D049EA0609E07880060BD559
:101B8000D8F8000040F08070C8F8000004F124008C
:101B900000F03AFD49EA00092068810317D5E16F9A
:101BA0006FF0010202EB3122022A0BD34FEA3122FD
:101BB00042B1012A40F09880D8F8002042F4003267
:101BC000C8F80020002E00F093804FF00109C002F9
:101BD00015D5206F40F00040B0F1004F07D043F220
:101BE000D25040F21E51C0F6000001F0C9F9D8F8F9
:101BF0002400216F20F000400843C8F82400E0785A
:101C0000C00617D5D4F8B40040F48040B0F5804F3A
:101C100007D043F2D2504FF4A561C0F6000001F0A6
:101C2000AFF958F81C0CD4F8B41020F480400843E5
:101C300048F81C0CA078800615D5A06E40F0807086
:101C4000B0F1807F07D043F2D25040F23251C0F65B
:101C5000000001F095F9D8F82400A16E20F0807002
:101C60000843C8F82400E07840061BD5D4F8B80033
:101C700040F40040B0F5004F07D043F2D25040F29C
:101C80003C51C0F6000001F07BF958F81C0C20F420
:101C9000004048F81C0CD4F8B80058F81C1C084345
:101CA00048F81C0C2068B0F1FF3F0FDC206D28B114
:101CB000B0F1805F18BFB0F1005F40D1D8F82000CC
:101CC000216D20F040500843C8F82000B9F1000F02
:101CD00018BF4FF00109484601B0BDE8F083012666
:101CE000002E7FF411AFF4E60126002E7FF46DAFD5
:101CF000D8F8282022F440721143C8F82810C002F6
:101D00003FF567AF7BE74FF6CF73D4F8B00058F8D4
:101D10001C2CC0F2FF0300F4407122F47C5203EA51
:101D20001013B1F5407F08BF1A436FF31F3048F816
:101D30001C2CD8F844100843C8F84400EFE443F2E0
:101D4000D25040F24651C0F6000001F019F9B5E753
:101D500043F2D2504FF42F71C0F6000001F010F999
:101D6000FFF796BC00000000704700000000000074
:101D7000F8B1B0B541F6FF3104460068C4F2000185
:101D8000884218DC40F6FF31C4F20001884227DDAA
:101D900041F2FF31C4F2000188423DDC40F60041CF
:101DA000C4F2000188424ED041F20001C4F20001A9
:101DB00047E00120704740F2FF31C4F20101884240
:101DC0001CDD44F2FF31C4F2010188422FDC40F2F5
:101DD0000041C4F20101884235D044F200012EE0F6
:101DE000B0F1804F2FD040F20041C4F20001884290
:101DF00029D040F60001C4F2000122E041F6004182
:101E0000C4F2000188421ED042F20001C4F2000177
:101E1000884218D0002112E041F20041C4F20001D2
:101E2000884210D041F60001C4F2000109E044F2FA
:101E30000041C4F20101884205D044F60001C4F219
:101E40000101884238D1A0684FEA301006282BD80B
:101E5000012101FA00F010F0570F25D02069251D4F
:101E600028B1B0F5807F18BFB0F5007F14D194F889
:101E70003D0028B9002084F83C00204600F024F8FA
:101E8000022084F83D002068294600F745FC012027
:101E900084F83D000020B0BD43F21260CC21C0F6B2
:101EA000000001F06DF8E2E743F21260CB21C0F6CA
:101EB000000001F065F8D1E743F21260CA21C0F6D4
:101EC000000001F05DF8BEE780B582B041F200018C
:101ED0000068C4F20001884201D002B080BD44F223
:101EE000E8400222C5F60200016841F010010160DD
:101EF0000068012100F01000019001983620FFF6E3
:101F0000C3F93620FFF6B0F902B080BD0000000032
:101F100010B541F6FF3104460068C4F20001884262
:101F200016DC40F6FF31C4F20001884225DD41F2A3
:101F3000FF31C4F2000188423BDC40F60041C4F2AC
:101F4000000188424CD041F20001C4F2000145E09A
:101F500040F2FF31C4F2010188421CDD44F2FF313E
:101F6000C4F2010188422FDC40F20041C4F20101B9
:101F7000884235D044F200012EE0B0F1804F2FD0DE
:101F800040F20041C4F20001884229D040F600012D
:101F9000C4F2000122E041F60041C4F2000188428F
:101FA0001ED042F20001C4F20001884218D0002184
:101FB00012E041F20041C4F20001884210D041F623
:101FC0000001C4F2000109E044F20041C4F2010141
:101FD000884205D044F60001C4F2010188420AD1CA
:101FE0002168C86840F00100C8600A88002042F0FB
:101FF00001020A8010BD43F212604FF4AB71C0F6CB
:10200000000000F0BDFFEBE710B541F6FF310446DC
:102010000068C4F20001884216DC40F6FF31C4F2C9
:102020000001884225DD41F2FF31C4F200018842FF
:102030003BDC40F60041C4F2000188424CD041F242
:102040000001C4F2000145E040F2FF31C4F2010199
:1020500088421CDD44F2FF31C4F2010188422FDCCA
:1020600040F20041C4F20101884235D044F200013F
:102070002EE0B0F1804F2FD040F20041C4F20001B9
:10208000884229D040F60001C4F2000122E041F666
:102090000041C4F2000188421ED042F20001C4F2A5
:1020A0000001884218D0002112E041F20041C4F240
:1020B0000001884210D041F60001C4F2000109E09D
:1020C00044F20041C4F20101884205D044F6000107
:1020D000C4F20101884216D1206841F21112C16890
:1020E00021F00101C160016A114201D0002010BD40
:1020F000016A40F244421142F8D1018821F0010105
:102100000180002010BD43F2126040F26B11C0F656
:10211000000000F035FFDFE770470000000000001E
:102120007047000000000000704700000000000041
:1021300010B5002800F0A8800446806947F2FF71BE
:1021400000282068C4F200011AD0884233DD40F62E
:10215000FF71C4F2010188424BDD41F20001C4F27B
:10216000010188427AD041F20041C4F20101884263
:1021700074D040F60041C5F6000188426ED04DE0B3
:10218000884227DD40F6FF71C4F20101884249DD33
:1021900041F20001C4F2010188425FD041F20041E6
:1021A000C4F20101884259D040F60041C5F6000151
:1021B000884253D04BE044F6FF31C4F2000188421C
:1021C00020DC44F20041C4F20001884246D044F6CB
:1021D00000011FE044F6FF31C4F2000188422ADC0E
:1021E00044F20041C4F20001884237D044F60001B5
:1021F00029E047F60001C4F2000188422ED047F6DC
:10220000004107E044F60041C4F20001884225D0B5
:1022100045F20001C4F2000188421FD043F212606F
:10222000F22117E047F60001C4F20001884215D000
:1022300047F6004107E044F60041C4F2000188423D
:102240000CD045F20001C4F20001884206D043F2EE
:102250001260F721C0F6100000F092FE94F87900A9
:1022600028B9002084F87800204600F025F82420C2
:1022700084F879002068016821F00101016020469E
:1022800000F782FB012801D1012010BD606B10B165
:10229000204600F049FC2068416821F490414160EB
:1022A000816821F02A018160016841F0010101602B
:1022B000204600F7D1FA10BD2DE9F04186B044F672
:1022C00000470446C4F20007006807F544420021B5
:1022D0009042059104910391CDE9011131D144F26D
:1022E000E04001AEC5F60200016841F00101016065
:1022F000016801F0010100910099016941F01001AC
:1023000001610069012100F01000009000984FF475
:10231000007001900220CDE9031040F200410290CC
:10232000C5F602010720A1F58065059028463146D3
:10233000FEF622FE4FF48060019028463146FEF6FC
:102340001BFE2068B84202D006B0BDE8F08144F21E
:10235000E04040F20044C5F60200C5F6020401ADBB
:10236000022601684FF0080841F00201016001688F
:1023700001F0020100910099816841F4002181601F
:102380008068294600F40020009000984FF4007007
:1023900001902046CDE902660496CDF81480FEF641
:1023A000EBFD4FF480702946CDE901062046012758
:1023B000CDE90376CDF81480FEF6DEFD80202946B7
:1023C000CDE901070320049020460397FEF6D4FDD3
